{
  "_format": "hh-sol-artifact-1",
  "contractName": "SaveSoilNameService",
  "sourceName": "contracts/SaveSoilNameService.sol",
  "abi": [
    {
      "inputs": [
        {
          "internalType": "string",
          "name": "_tld",
          "type": "string"
        }
      ],
      "stateMutability": "payable",
      "type": "constructor"
    },
    {
      "inputs": [],
      "name": "AlreadyRegistered",
      "type": "error"
    },
    {
      "inputs": [
        {
          "internalType": "string",
          "name": "name",
          "type": "string"
        }
      ],
      "name": "InvalidName",
      "type": "error"
    },
    {
      "inputs": [],
      "name": "Unauthorized",
      "type": "error"
    },
    {
      "anonymous": false,
      "inputs": [
        {
          "indexed": true,
          "internalType": "address",
          "name": "owner",
          "type": "address"
        },
        {
          "indexed": true,
          "internalType": "address",
          "name": "approved",
          "type": "address"
        },
        {
          "indexed": true,
          "internalType": "uint256",
          "name": "tokenId",
          "type": "uint256"
        }
      ],
      "name": "Approval",
      "type": "event"
    },
    {
      "anonymous": false,
      "inputs": [
        {
          "indexed": true,
          "internalType": "address",
          "name": "owner",
          "type": "address"
        },
        {
          "indexed": true,
          "internalType": "address",
          "name": "operator",
          "type": "address"
        },
        {
          "indexed": false,
          "internalType": "bool",
          "name": "approved",
          "type": "bool"
        }
      ],
      "name": "ApprovalForAll",
      "type": "event"
    },
    {
      "anonymous": false,
      "inputs": [
        {
          "indexed": true,
          "internalType": "address",
          "name": "from",
          "type": "address"
        },
        {
          "indexed": true,
          "internalType": "address",
          "name": "to",
          "type": "address"
        },
        {
          "indexed": true,
          "internalType": "uint256",
          "name": "tokenId",
          "type": "uint256"
        }
      ],
      "name": "Transfer",
      "type": "event"
    },
    {
      "inputs": [
        {
          "internalType": "address",
          "name": "to",
          "type": "address"
        },
        {
          "internalType": "uint256",
          "name": "tokenId",
          "type": "uint256"
        }
      ],
      "name": "approve",
      "outputs": [],
      "stateMutability": "nonpayable",
      "type": "function"
    },
    {
      "inputs": [
        {
          "internalType": "address",
          "name": "owner",
          "type": "address"
        }
      ],
      "name": "balanceOf",
      "outputs": [
        {
          "internalType": "uint256",
          "name": "",
          "type": "uint256"
        }
      ],
      "stateMutability": "view",
      "type": "function"
    },
    {
      "inputs": [
        {
          "internalType": "string",
          "name": "",
          "type": "string"
        }
      ],
      "name": "domains",
      "outputs": [
        {
          "internalType": "address",
          "name": "",
          "type": "address"
        }
      ],
      "stateMutability": "view",
      "type": "function"
    },
    {
      "inputs": [
        {
          "internalType": "string",
          "name": "name",
          "type": "string"
        }
      ],
      "name": "getAddress",
      "outputs": [
        {
          "internalType": "address",
          "name": "",
          "type": "address"
        }
      ],
      "stateMutability": "view",
      "type": "function"
    },
    {
      "inputs": [],
      "name": "getAllNames",
      "outputs": [
        {
          "internalType": "string[]",
          "name": "",
          "type": "string[]"
        }
      ],
      "stateMutability": "view",
      "type": "function"
    },
    {
      "inputs": [
        {
          "internalType": "uint256",
          "name": "tokenId",
          "type": "uint256"
        }
      ],
      "name": "getApproved",
      "outputs": [
        {
          "internalType": "address",
          "name": "",
          "type": "address"
        }
      ],
      "stateMutability": "view",
      "type": "function"
    },
    {
      "inputs": [
        {
          "internalType": "string",
          "name": "name",
          "type": "string"
        }
      ],
      "name": "getPrice",
      "outputs": [
        {
          "internalType": "uint256",
          "name": "",
          "type": "uint256"
        }
      ],
      "stateMutability": "pure",
      "type": "function"
    },
    {
      "inputs": [
        {
          "internalType": "string",
          "name": "name",
          "type": "string"
        }
      ],
      "name": "getRecord",
      "outputs": [
        {
          "internalType": "string",
          "name": "",
          "type": "string"
        }
      ],
      "stateMutability": "view",
      "type": "function"
    },
    {
      "inputs": [
        {
          "internalType": "address",
          "name": "owner",
          "type": "address"
        },
        {
          "internalType": "address",
          "name": "operator",
          "type": "address"
        }
      ],
      "name": "isApprovedForAll",
      "outputs": [
        {
          "internalType": "bool",
          "name": "",
          "type": "bool"
        }
      ],
      "stateMutability": "view",
      "type": "function"
    },
    {
      "inputs": [],
      "name": "name",
      "outputs": [
        {
          "internalType": "string",
          "name": "",
          "type": "string"
        }
      ],
      "stateMutability": "view",
      "type": "function"
    },
    {
      "inputs": [
        {
          "internalType": "uint256",
          "name": "",
          "type": "uint256"
        }
      ],
      "name": "names",
      "outputs": [
        {
          "internalType": "string",
          "name": "",
          "type": "string"
        }
      ],
      "stateMutability": "view",
      "type": "function"
    },
    {
      "inputs": [],
      "name": "owner",
      "outputs": [
        {
          "internalType": "address payable",
          "name": "",
          "type": "address"
        }
      ],
      "stateMutability": "view",
      "type": "function"
    },
    {
      "inputs": [
        {
          "internalType": "uint256",
          "name": "tokenId",
          "type": "uint256"
        }
      ],
      "name": "ownerOf",
      "outputs": [
        {
          "internalType": "address",
          "name": "",
          "type": "address"
        }
      ],
      "stateMutability": "view",
      "type": "function"
    },
    {
      "inputs": [
        {
          "internalType": "string",
          "name": "",
          "type": "string"
        }
      ],
      "name": "records",
      "outputs": [
        {
          "internalType": "string",
          "name": "",
          "type": "string"
        }
      ],
      "stateMutability": "view",
      "type": "function"
    },
    {
      "inputs": [
        {
          "internalType": "string",
          "name": "name",
          "type": "string"
        }
      ],
      "name": "register",
      "outputs": [],
      "stateMutability": "payable",
      "type": "function"
    },
    {
      "inputs": [
        {
          "internalType": "address",
          "name": "from",
          "type": "address"
        },
        {
          "internalType": "address",
          "name": "to",
          "type": "address"
        },
        {
          "internalType": "uint256",
          "name": "tokenId",
          "type": "uint256"
        }
      ],
      "name": "safeTransferFrom",
      "outputs": [],
      "stateMutability": "nonpayable",
      "type": "function"
    },
    {
      "inputs": [
        {
          "internalType": "address",
          "name": "from",
          "type": "address"
        },
        {
          "internalType": "address",
          "name": "to",
          "type": "address"
        },
        {
          "internalType": "uint256",
          "name": "tokenId",
          "type": "uint256"
        },
        {
          "internalType": "bytes",
          "name": "_data",
          "type": "bytes"
        }
      ],
      "name": "safeTransferFrom",
      "outputs": [],
      "stateMutability": "nonpayable",
      "type": "function"
    },
    {
      "inputs": [
        {
          "internalType": "address",
          "name": "operator",
          "type": "address"
        },
        {
          "internalType": "bool",
          "name": "approved",
          "type": "bool"
        }
      ],
      "name": "setApprovalForAll",
      "outputs": [],
      "stateMutability": "nonpayable",
      "type": "function"
    },
    {
      "inputs": [
        {
          "internalType": "string",
          "name": "name",
          "type": "string"
        },
        {
          "internalType": "string",
          "name": "record",
          "type": "string"
        }
      ],
      "name": "setRecord",
      "outputs": [],
      "stateMutability": "nonpayable",
      "type": "function"
    },
    {
      "inputs": [
        {
          "internalType": "bytes4",
          "name": "interfaceId",
          "type": "bytes4"
        }
      ],
      "name": "supportsInterface",
      "outputs": [
        {
          "internalType": "bool",
          "name": "",
          "type": "bool"
        }
      ],
      "stateMutability": "view",
      "type": "function"
    },
    {
      "inputs": [],
      "name": "symbol",
      "outputs": [
        {
          "internalType": "string",
          "name": "",
          "type": "string"
        }
      ],
      "stateMutability": "view",
      "type": "function"
    },
    {
      "inputs": [],
      "name": "tld",
      "outputs": [
        {
          "internalType": "string",
          "name": "",
          "type": "string"
        }
      ],
      "stateMutability": "view",
      "type": "function"
    },
    {
      "inputs": [
        {
          "internalType": "uint256",
          "name": "tokenId",
          "type": "uint256"
        }
      ],
      "name": "tokenURI",
      "outputs": [
        {
          "internalType": "string",
          "name": "",
          "type": "string"
        }
      ],
      "stateMutability": "view",
      "type": "function"
    },
    {
      "inputs": [
        {
          "internalType": "address",
          "name": "from",
          "type": "address"
        },
        {
          "internalType": "address",
          "name": "to",
          "type": "address"
        },
        {
          "internalType": "uint256",
          "name": "tokenId",
          "type": "uint256"
        }
      ],
      "name": "transferFrom",
      "outputs": [],
      "stateMutability": "nonpayable",
      "type": "function"
    },
    {
      "inputs": [],
      "name": "withdraw",
      "outputs": [],
      "stateMutability": "nonpayable",
      "type": "function"
    }
  ],
  "bytecode": "0x6080604052604051806107a0016040528061076e81526020016200539661076e9139600a908051906020019062000038929190620002c8565b506040518060400160405280600d81526020017f3c2f746578743e3c2f7376673e00000000000000000000000000000000000000815250600b908051906020019062000086929190620002c8565b5060405162005b0438038062005b048339818101604052810190620000ac9190620003ea565b6040518060400160405280601681526020017f5361766520536f696c204e616d652053657276696365000000000000000000008152506040518060400160405280600381526020017f534e530000000000000000000000000000000000000000000000000000000000815250816000908051906020019062000130929190620002c8565b50806001908051906020019062000149929190620002c8565b50505033600960006101000a81548173ffffffffffffffffffffffffffffffffffffffff021916908373ffffffffffffffffffffffffffffffffffffffff1602179055508060089080519060200190620001a5929190620002c8565b50620001f26040518060400160405280601b81526020017f2573206e616d652073657276696365206973206465706c6f796564000000000081525082620001f960201b62001a6b1760201c565b5062000637565b6200029b82826040516024016200021292919062000470565b6040516020818303038152906040527f4b5c4277000000000000000000000000000000000000000000000000000000007bffffffffffffffffffffffffffffffffffffffffffffffffffffffff19166020820180517bffffffffffffffffffffffffffffffffffffffffffffffffffffffff83818316178352505050506200029f60201b60201c565b5050565b60008151905060006a636f6e736f6c652e6c6f679050602083016000808483855afa5050505050565b828054620002d6906200055c565b90600052602060002090601f016020900481019282620002fa576000855562000346565b82601f106200031557805160ff191683800117855562000346565b8280016001018555821562000346579182015b828111156200034557825182559160200191906001019062000328565b5b50905062000355919062000359565b5090565b5b80821115620003745760008160009055506001016200035a565b5090565b60006200038f6200038984620004d4565b620004ab565b905082815260208101848484011115620003a857600080fd5b620003b584828562000526565b509392505050565b600082601f830112620003cf57600080fd5b8151620003e184826020860162000378565b91505092915050565b600060208284031215620003fd57600080fd5b600082015167ffffffffffffffff8111156200041857600080fd5b6200042684828501620003bd565b91505092915050565b60006200043c826200050a565b62000448818562000515565b93506200045a81856020860162000526565b620004658162000626565b840191505092915050565b600060408201905081810360008301526200048c81856200042f565b90508181036020830152620004a281846200042f565b90509392505050565b6000620004b7620004ca565b9050620004c5828262000592565b919050565b6000604051905090565b600067ffffffffffffffff821115620004f257620004f1620005f7565b5b620004fd8262000626565b9050602081019050919050565b600081519050919050565b600082825260208201905092915050565b60005b838110156200054657808201518184015260208101905062000529565b8381111562000556576000848401525b50505050565b600060028204905060018216806200057557607f821691505b602082108114156200058c576200058b620005c8565b5b50919050565b6200059d8262000626565b810181811067ffffffffffffffff82111715620005bf57620005be620005f7565b5b80604052505050565b7f4e487b7100000000000000000000000000000000000000000000000000000000600052602260045260246000fd5b7f4e487b7100000000000000000000000000000000000000000000000000000000600052604160045260246000fd5b6000601f19601f8301169050919050565b614d4f80620006476000396000f3fe6080604052600436106101665760003560e01c8063541e771d116100d1578063b88d4fde1161008a578063c87b56dd11610064578063c87b56dd14610586578063e985e9c5146105c3578063f2c298be14610600578063fb825e5f1461061c57610166565b8063b88d4fde146104f7578063bf40fac114610520578063c1880a981461055d57610166565b8063541e771d146103c15780636352211e146103fe57806370a082311461043b5780638da5cb5b1461047857806395d89b41146104a3578063a22cb465146104ce57610166565b80632644923511610123578063264492351461029f5780632d551432146102dc5780633ccfd60b1461030757806342842e0e1461031e5780634622ab0314610347578063524f38891461038457610166565b806301ffc9a71461016b57806306fdde03146101a8578063081812fc146101d3578063095ea7b31461021057806311dd88451461023957806323b872dd14610276575b600080fd5b34801561017757600080fd5b50610192600480360381019061018d9190613332565b610647565b60405161019f9190613c75565b60405180910390f35b3480156101b457600080fd5b506101bd610729565b6040516101ca9190613c90565b60405180910390f35b3480156101df57600080fd5b506101fa60048036038101906101f5919061347f565b6107bb565b6040516102079190613bd1565b60405180910390f35b34801561021c57600080fd5b50610237600480360381019061023291906132f6565b610840565b005b34801561024557600080fd5b50610260600480360381019061025b9190613384565b610958565b60405161026d9190613c90565b60405180910390f35b34801561028257600080fd5b5061029d600480360381019061029891906131f0565b610a0b565b005b3480156102ab57600080fd5b506102c660048036038101906102c1919061343e565b610a6b565b6040516102d39190613bd1565b60405180910390f35b3480156102e857600080fd5b506102f1610ab4565b6040516102fe9190613c90565b60405180910390f35b34801561031357600080fd5b5061031c610b42565b005b34801561032a57600080fd5b50610345600480360381019061034091906131f0565b610c4b565b005b34801561035357600080fd5b5061036e6004803603810190610369919061347f565b610c6b565b60405161037b9190613c90565b60405180910390f35b34801561039057600080fd5b506103ab60048036038101906103a69190613384565b610d0b565b6040516103b89190614038565b60405180910390f35b3480156103cd57600080fd5b506103e860048036038101906103e3919061343e565b610df4565b6040516103f59190613c90565b60405180910390f35b34801561040a57600080fd5b506104256004803603810190610420919061347f565b610eaa565b6040516104329190613bd1565b60405180910390f35b34801561044757600080fd5b50610462600480360381019061045d919061318b565b610f5c565b60405161046f9190614038565b60405180910390f35b34801561048457600080fd5b5061048d611014565b60405161049a9190613bec565b60405180910390f35b3480156104af57600080fd5b506104b861103a565b6040516104c59190613c90565b60405180910390f35b3480156104da57600080fd5b506104f560048036038101906104f091906132ba565b6110cc565b005b34801561050357600080fd5b5061051e6004803603810190610519919061323f565b6110e2565b005b34801561052c57600080fd5b5061054760048036038101906105429190613384565b611144565b6040516105549190613bd1565b60405180910390f35b34801561056957600080fd5b50610584600480360381019061057f91906133c9565b61118f565b005b34801561059257600080fd5b506105ad60048036038101906105a8919061347f565b61123d565b6040516105ba9190613c90565b60405180910390f35b3480156105cf57600080fd5b506105ea60048036038101906105e591906131b4565b61138f565b6040516105f79190613c75565b60405180910390f35b61061a60048036038101906106159190613384565b611423565b005b34801561062857600080fd5b5061063161181b565b60405161063e9190613c53565b60405180910390f35b60007f80ac58cd000000000000000000000000000000000000000000000000000000007bffffffffffffffffffffffffffffffffffffffffffffffffffffffff1916827bffffffffffffffffffffffffffffffffffffffffffffffffffffffff1916148061071257507f5b5e139f000000000000000000000000000000000000000000000000000000007bffffffffffffffffffffffffffffffffffffffffffffffffffffffff1916827bffffffffffffffffffffffffffffffffffffffffffffffffffffffff1916145b80610722575061072182611b07565b5b9050919050565b60606000805461073890614364565b80601f016020809104026020016040519081016040528092919081815260200182805461076490614364565b80156107b15780601f10610786576101008083540402835291602001916107b1565b820191906000526020600020905b81548152906001019060200180831161079457829003601f168201915b5050505050905090565b60006107c682611b71565b610805576040517f08c379a00000000000000000000000000000000000000000000000000000000081526004016107fc90613f78565b60405180910390fd5b6004600083815260200190815260200160002060009054906101000a900473ffffffffffffffffffffffffffffffffffffffff169050919050565b600061084b82610eaa565b90508073ffffffffffffffffffffffffffffffffffffffff168373ffffffffffffffffffffffffffffffffffffffff1614156108bc576040517f08c379a00000000000000000000000000000000000000000000000000000000081526004016108b390613fd8565b60405180910390fd5b8073ffffffffffffffffffffffffffffffffffffffff166108db611bdd565b73ffffffffffffffffffffffffffffffffffffffff16148061090a575061090981610904611bdd565b61138f565b5b610949576040517f08c379a000000000000000000000000000000000000000000000000000000000815260040161094090613e98565b60405180910390fd5b6109538383611be5565b505050565b6060600d838360405161096c929190613a9e565b9081526020016040518091039020805461098590614364565b80601f01602080910402602001604051908101604052809291908181526020018280546109b190614364565b80156109fe5780601f106109d3576101008083540402835291602001916109fe565b820191906000526020600020905b8154815290600101906020018083116109e157829003601f168201915b5050505050905092915050565b610a1c610a16611bdd565b82611c9e565b610a5b576040517f08c379a0000000000000000000000000000000000000000000000000000000008152600401610a5290613ff8565b60405180910390fd5b610a66838383611d7c565b505050565b600c818051602081018201805184825260208301602085012081835280955050505050506000915054906101000a900473ffffffffffffffffffffffffffffffffffffffff1681565b60088054610ac190614364565b80601f0160208091040260200160405190810160405280929190818152602001828054610aed90614364565b8015610b3a5780601f10610b0f57610100808354040283529160200191610b3a565b820191906000526020600020905b815481529060010190602001808311610b1d57829003601f168201915b505050505081565b600960009054906101000a900473ffffffffffffffffffffffffffffffffffffffff1673ffffffffffffffffffffffffffffffffffffffff163373ffffffffffffffffffffffffffffffffffffffff1614610b9c57600080fd5b60003373ffffffffffffffffffffffffffffffffffffffff1647604051610bc290613bbc565b60006040518083038185875af1925050503d8060008114610bff576040519150601f19603f3d011682016040523d82523d6000602084013e610c04565b606091505b5050905080610c48576040517f08c379a0000000000000000000000000000000000000000000000000000000008152600401610c3f90614018565b60405180910390fd5b50565b610c66838383604051806020016040528060008152506110e2565b505050565b600e6020528060005260406000206000915090508054610c8a90614364565b80601f0160208091040260200160405190810160405280929190818152602001828054610cb690614364565b8015610d035780601f10610cd857610100808354040283529160200191610d03565b820191906000526020600020905b815481529060010190602001808311610ce657829003601f168201915b505050505081565b600080610d5b84848080601f016020809104026020016040519081016040528093929190818152602001838380828437600081840152601f19601f82011690508083019250505050505050611fe3565b905060038111610da0576040517f08c379a0000000000000000000000000000000000000000000000000000000008152600401610d9790613f98565b60405180910390fd5b6003811415610dba5767058d15e176280000915050610dee565b806003118015610dcb5750600a8110155b15610de157670429d069189e0000915050610dee565b67016345785d8a00009150505b92915050565b600d818051602081018201805184825260208301602085012081835280955050505050506000915090508054610e2990614364565b80601f0160208091040260200160405190810160405280929190818152602001828054610e5590614364565b8015610ea25780601f10610e7757610100808354040283529160200191610ea2565b820191906000526020600020905b815481529060010190602001808311610e8557829003601f168201915b505050505081565b6000806002600084815260200190815260200160002060009054906101000a900473ffffffffffffffffffffffffffffffffffffffff169050600073ffffffffffffffffffffffffffffffffffffffff168173ffffffffffffffffffffffffffffffffffffffff161415610f53576040517f08c379a0000000000000000000000000000000000000000000000000000000008152600401610f4a90613ed8565b60405180910390fd5b80915050919050565b60008073ffffffffffffffffffffffffffffffffffffffff168273ffffffffffffffffffffffffffffffffffffffff161415610fcd576040517f08c379a0000000000000000000000000000000000000000000000000000000008152600401610fc490613eb8565b60405180910390fd5b600360008373ffffffffffffffffffffffffffffffffffffffff1673ffffffffffffffffffffffffffffffffffffffff168152602001908152602001600020549050919050565b600960009054906101000a900473ffffffffffffffffffffffffffffffffffffffff1681565b60606001805461104990614364565b80601f016020809104026020016040519081016040528092919081815260200182805461107590614364565b80156110c25780601f10611097576101008083540402835291602001916110c2565b820191906000526020600020905b8154815290600101906020018083116110a557829003601f168201915b5050505050905090565b6110de6110d7611bdd565b83836121be565b5050565b6110f36110ed611bdd565b83611c9e565b611132576040517f08c379a000000000000000000000000000000000000000000000000000000000815260040161112990613ff8565b60405180910390fd5b61113e8484848461232b565b50505050565b6000600c8383604051611158929190613a9e565b908152602001604051809103902060009054906101000a900473ffffffffffffffffffffffffffffffffffffffff16905092915050565b3373ffffffffffffffffffffffffffffffffffffffff16600c85856040516111b8929190613a9e565b908152602001604051809103902060009054906101000a900473ffffffffffffffffffffffffffffffffffffffff1673ffffffffffffffffffffffffffffffffffffffff161461120757600080fd5b8181600d868660405161121b929190613a9e565b90815260200160405180910390209190611236929190612edf565b5050505050565b606061124882611b71565b611287576040517f08c379a000000000000000000000000000000000000000000000000000000000815260040161127e90613f58565b60405180910390fd5b60006006600084815260200190815260200160002080546112a790614364565b80601f01602080910402602001604051908101604052809291908181526020018280546112d390614364565b80156113205780601f106112f557610100808354040283529160200191611320565b820191906000526020600020905b81548152906001019060200180831161130357829003601f168201915b505050505090506000611331612387565b905060008151141561134757819250505061138a565b60008251111561137c578082604051602001611364929190613ae8565b6040516020818303038152906040529250505061138a565b6113858461239e565b925050505b919050565b6000600560008473ffffffffffffffffffffffffffffffffffffffff1673ffffffffffffffffffffffffffffffffffffffff16815260200190815260200160002060008373ffffffffffffffffffffffffffffffffffffffff1673ffffffffffffffffffffffffffffffffffffffff16815260200190815260200160002060009054906101000a900460ff16905092915050565b600073ffffffffffffffffffffffffffffffffffffffff16600c838360405161144d929190613a9e565b908152602001604051809103902060009054906101000a900473ffffffffffffffffffffffffffffffffffffffff1673ffffffffffffffffffffffffffffffffffffffff16146114d2576040517f08c379a00000000000000000000000000000000000000000000000000000000081526004016114c990613f18565b60405180910390fd5b60006114de8383610d0b565b905080341015611523576040517f08c379a000000000000000000000000000000000000000000000000000000000815260040161151a90613db8565b60405180910390fd5b60008383600860405160200161153b93929190613ab7565b60405160208183030381529060405290506000600a82600b60405160200161156593929190613b0c565b604051602081830303815290604052905060006115826007612445565b905060006115d387878080601f016020809104026020016040519081016040528093929190818152602001838380828437600081840152601f19601f82011690508083019250505050505050611fe3565b905060006115e082612453565b90506116d4604051806060016040528060248152602001614cf66024913989898080601f016020809104026020016040519081016040528093929190818152602001838380828437600081840152601f19601f820116905080830192505050505050506008805461165090614364565b80601f016020809104026020016040519081016040528092919081815260200182805461167c90614364565b80156116c95780601f1061169e576101008083540402835291602001916116c9565b820191906000526020600020905b8154815290600101906020018083116116ac57829003601f168201915b505050505086612600565b600061170a866116e3876126a2565b846040516020016116f693929190613b3d565b6040516020818303038152906040526126a2565b905060008160405160200161171f9190613b9a565b604051602081830303815290604052905061173a3386612841565b611744858261285f565b33600c8b8b604051611757929190613a9e565b908152602001604051809103902060006101000a81548173ffffffffffffffffffffffffffffffffffffffff021916908373ffffffffffffffffffffffffffffffffffffffff1602179055506117e26040518060400160405280601f81526020017f2573206861732072656769737465726564206120646f6d61696e206e616d6500815250336128d3565b8989600e60008881526020019081526020016000209190611804929190612edf565b5061180f600761296f565b50505050505050505050565b606061185b6040518060400160405280601f81526020017f47657474696e6720616c6c206e616d65732066726f6d20636f6e747261637400815250612985565b60006118676007612445565b67ffffffffffffffff8111156118a6577f4e487b7100000000000000000000000000000000000000000000000000000000600052604160045260246000fd5b6040519080825280602002602001820160405280156118d957816020015b60608152602001906001900390816118c45790505b50905060005b6118e96007612445565b811015611a6357600e6000828152602001908152602001600020805461190e90614364565b80601f016020809104026020016040519081016040528092919081815260200182805461193a90614364565b80156119875780601f1061195c57610100808354040283529160200191611987565b820191906000526020600020905b81548152906001019060200180831161196a57829003601f168201915b50505050508282815181106119c5577f4e487b7100000000000000000000000000000000000000000000000000000000600052603260045260246000fd5b6020026020010181905250611a506040518060400160405280601781526020017f4e616d6520666f7220746f6b656e20256420697320257300000000000000000081525082848481518110611a43577f4e487b7100000000000000000000000000000000000000000000000000000000600052603260045260246000fd5b6020026020010151612a1e565b8080611a5b906143c7565b9150506118df565b508091505090565b611b038282604051602401611a81929190613ce2565b6040516020818303038152906040527f4b5c4277000000000000000000000000000000000000000000000000000000007bffffffffffffffffffffffffffffffffffffffffffffffffffffffff19166020820180517bffffffffffffffffffffffffffffffffffffffffffffffffffffffff8381831617835250505050612abd565b5050565b60007f01ffc9a7000000000000000000000000000000000000000000000000000000007bffffffffffffffffffffffffffffffffffffffffffffffffffffffff1916827bffffffffffffffffffffffffffffffffffffffffffffffffffffffff1916149050919050565b60008073ffffffffffffffffffffffffffffffffffffffff166002600084815260200190815260200160002060009054906101000a900473ffffffffffffffffffffffffffffffffffffffff1673ffffffffffffffffffffffffffffffffffffffff1614159050919050565b600033905090565b816004600083815260200190815260200160002060006101000a81548173ffffffffffffffffffffffffffffffffffffffff021916908373ffffffffffffffffffffffffffffffffffffffff160217905550808273ffffffffffffffffffffffffffffffffffffffff16611c5883610eaa565b73ffffffffffffffffffffffffffffffffffffffff167f8c5be1e5ebec7d5bd14f71427d1e84f3dd0314c0f7b2291e5b200ac8c7c3b92560405160405180910390a45050565b6000611ca982611b71565b611ce8576040517f08c379a0000000000000000000000000000000000000000000000000000000008152600401611cdf90613e78565b60405180910390fd5b6000611cf383610eaa565b90508073ffffffffffffffffffffffffffffffffffffffff168473ffffffffffffffffffffffffffffffffffffffff161480611d6257508373ffffffffffffffffffffffffffffffffffffffff16611d4a846107bb565b73ffffffffffffffffffffffffffffffffffffffff16145b80611d735750611d72818561138f565b5b91505092915050565b8273ffffffffffffffffffffffffffffffffffffffff16611d9c82610eaa565b73ffffffffffffffffffffffffffffffffffffffff1614611df2576040517f08c379a0000000000000000000000000000000000000000000000000000000008152600401611de990613df8565b60405180910390fd5b600073ffffffffffffffffffffffffffffffffffffffff168273ffffffffffffffffffffffffffffffffffffffff161415611e62576040517f08c379a0000000000000000000000000000000000000000000000000000000008152600401611e5990613e38565b60405180910390fd5b611e6d838383612ae6565b611e78600082611be5565b6001600360008573ffffffffffffffffffffffffffffffffffffffff1673ffffffffffffffffffffffffffffffffffffffff1681526020019081526020016000206000828254611ec89190614268565b925050819055506001600360008473ffffffffffffffffffffffffffffffffffffffff1673ffffffffffffffffffffffffffffffffffffffff1681526020019081526020016000206000828254611f1f9190614187565b92505081905550816002600083815260200190815260200160002060006101000a81548173ffffffffffffffffffffffffffffffffffffffff021916908373ffffffffffffffffffffffffffffffffffffffff160217905550808273ffffffffffffffffffffffffffffffffffffffff168473ffffffffffffffffffffffffffffffffffffffff167fddf252ad1be2c89b69c2b068fc378daa952ba7f163c4a11628f55a4df523b3ef60405160405180910390a4611fde838383612aeb565b505050565b60008060008084519050600092505b808210156121b3576000858381518110612035577f4e487b7100000000000000000000000000000000000000000000000000000000600052603260045260246000fd5b602001015160f81c60f81b9050608060f81b817effffffffffffffffffffffffffffffffffffffffffffffffffffffffffffff191610156120845760018361207d9190614187565b925061219f565b60e060f81b817effffffffffffffffffffffffffffffffffffffffffffffffffffffffffffff191610156120c6576002836120bf9190614187565b925061219e565b60f060f81b817effffffffffffffffffffffffffffffffffffffffffffffffffffffffffffff19161015612108576003836121019190614187565b925061219d565b60f8801b817effffffffffffffffffffffffffffffffffffffffffffffffffffffffffffff19161015612149576004836121429190614187565b925061219c565b60fc60f81b817effffffffffffffffffffffffffffffffffffffffffffffffffffffffffffff1916101561218b576005836121849190614187565b925061219b565b6006836121989190614187565b92505b5b5b5b5b5082806121ab906143c7565b935050611ff2565b829350505050919050565b8173ffffffffffffffffffffffffffffffffffffffff168373ffffffffffffffffffffffffffffffffffffffff16141561222d576040517f08c379a000000000000000000000000000000000000000000000000000000000815260040161222490613e58565b60405180910390fd5b80600560008573ffffffffffffffffffffffffffffffffffffffff1673ffffffffffffffffffffffffffffffffffffffff16815260200190815260200160002060008473ffffffffffffffffffffffffffffffffffffffff1673ffffffffffffffffffffffffffffffffffffffff16815260200190815260200160002060006101000a81548160ff0219169083151502179055508173ffffffffffffffffffffffffffffffffffffffff168373ffffffffffffffffffffffffffffffffffffffff167f17307eab39ab6107e8899845ad3d59bd9653f200f220920489ca2b5937696c318360405161231e9190613c75565b60405180910390a3505050565b612336848484611d7c565b61234284848484612af0565b612381576040517f08c379a000000000000000000000000000000000000000000000000000000000815260040161237890613dd8565b60405180910390fd5b50505050565b606060405180602001604052806000815250905090565b60606123a982611b71565b6123e8576040517f08c379a00000000000000000000000000000000000000000000000000000000081526004016123df90613fb8565b60405180910390fd5b60006123f2612387565b90506000815111612412576040518060200160405280600081525061243d565b8061241c84612453565b60405160200161242d929190613ae8565b6040516020818303038152906040525b915050919050565b600081600001549050919050565b6060600082141561249b576040518060400160405280600181526020017f300000000000000000000000000000000000000000000000000000000000000081525090506125fb565b600082905060005b600082146124cd5780806124b6906143c7565b915050600a826124c691906141dd565b91506124a3565b60008167ffffffffffffffff81111561250f577f4e487b7100000000000000000000000000000000000000000000000000000000600052604160045260246000fd5b6040519080825280601f01601f1916602001820160405280156125415781602001600182028036833780820191505090505b5090505b600085146125f45760018261255a9190614268565b9150600a856125699190614410565b60306125759190614187565b60f81b8183815181106125b1577f4e487b7100000000000000000000000000000000000000000000000000000000600052603260045260246000fd5b60200101907effffffffffffffffffffffffffffffffffffffffffffffffffffffffffffff1916908160001a905350600a856125ed91906141dd565b9450612545565b8093505050505b919050565b61269c8484848460405160240161261a9493929190613d19565b6040516020818303038152906040527f9fd009f5000000000000000000000000000000000000000000000000000000007bffffffffffffffffffffffffffffffffffffffffffffffffffffffff19166020820180517bffffffffffffffffffffffffffffffffffffffffffffffffffffffff8381831617835250505050612abd565b50505050565b60606000825114156126c55760405180602001604052806000815250905061283c565b6000604051806060016040528060408152602001614cb660409139905060006003600285516126f49190614187565b6126fe91906141dd565b600461270a919061420e565b9050600060208261271b9190614187565b67ffffffffffffffff81111561275a577f4e487b7100000000000000000000000000000000000000000000000000000000600052604160045260246000fd5b6040519080825280601f01601f19166020018201604052801561278c5781602001600182028036833780820191505090505b509050818152600183018586518101602084015b818310156127fb576003830192508251603f8160121c168501518253600182019150603f81600c1c168501518253600182019150603f8160061c168501518253600182019150603f81168501518253600182019150506127a0565b600389510660018114612815576002811461282557612830565b613d3d60f01b6002830352612830565b603d60f81b60018303525b50505050508093505050505b919050565b61285b828260405180602001604052806000815250612c87565b5050565b61286882611b71565b6128a7576040517f08c379a000000000000000000000000000000000000000000000000000000000815260040161289e90613ef8565b60405180910390fd5b806006600084815260200190815260200160002090805190602001906128ce929190612f65565b505050565b61296b82826040516024016128e9929190613cb2565b6040516020818303038152906040527f319af333000000000000000000000000000000000000000000000000000000007bffffffffffffffffffffffffffffffffffffffffffffffffffffffff19166020820180517bffffffffffffffffffffffffffffffffffffffffffffffffffffffff8381831617835250505050612abd565b5050565b6001816000016000828254019250508190555050565b612a1b816040516024016129999190613c90565b6040516020818303038152906040527f41304fac000000000000000000000000000000000000000000000000000000007bffffffffffffffffffffffffffffffffffffffffffffffffffffffff19166020820180517bffffffffffffffffffffffffffffffffffffffffffffffffffffffff8381831617835250505050612abd565b50565b612ab8838383604051602401612a3693929190613d73565b6040516020818303038152906040527fa3f5c739000000000000000000000000000000000000000000000000000000007bffffffffffffffffffffffffffffffffffffffffffffffffffffffff19166020820180517bffffffffffffffffffffffffffffffffffffffffffffffffffffffff8381831617835250505050612abd565b505050565b60008151905060006a636f6e736f6c652e6c6f679050602083016000808483855afa5050505050565b505050565b505050565b6000612b118473ffffffffffffffffffffffffffffffffffffffff16612ce2565b15612c7a578373ffffffffffffffffffffffffffffffffffffffff1663150b7a02612b3a611bdd565b8786866040518563ffffffff1660e01b8152600401612b5c9493929190613c07565b602060405180830381600087803b158015612b7657600080fd5b505af1925050508015612ba757506040513d601f19601f82011682018060405250810190612ba4919061335b565b60015b612c2a573d8060008114612bd7576040519150601f19603f3d011682016040523d82523d6000602084013e612bdc565b606091505b50600081511415612c22576040517f08c379a0000000000000000000000000000000000000000000000000000000008152600401612c1990613dd8565b60405180910390fd5b805181602001fd5b63150b7a0260e01b7bffffffffffffffffffffffffffffffffffffffffffffffffffffffff1916817bffffffffffffffffffffffffffffffffffffffffffffffffffffffff191614915050612c7f565b600190505b949350505050565b612c918383612d05565b612c9e6000848484612af0565b612cdd576040517f08c379a0000000000000000000000000000000000000000000000000000000008152600401612cd490613dd8565b60405180910390fd5b505050565b6000808273ffffffffffffffffffffffffffffffffffffffff163b119050919050565b600073ffffffffffffffffffffffffffffffffffffffff168273ffffffffffffffffffffffffffffffffffffffff161415612d75576040517f08c379a0000000000000000000000000000000000000000000000000000000008152600401612d6c90613f38565b60405180910390fd5b612d7e81611b71565b15612dbe576040517f08c379a0000000000000000000000000000000000000000000000000000000008152600401612db590613e18565b60405180910390fd5b612dca60008383612ae6565b6001600360008473ffffffffffffffffffffffffffffffffffffffff1673ffffffffffffffffffffffffffffffffffffffff1681526020019081526020016000206000828254612e1a9190614187565b92505081905550816002600083815260200190815260200160002060006101000a81548173ffffffffffffffffffffffffffffffffffffffff021916908373ffffffffffffffffffffffffffffffffffffffff160217905550808273ffffffffffffffffffffffffffffffffffffffff16600073ffffffffffffffffffffffffffffffffffffffff167fddf252ad1be2c89b69c2b068fc378daa952ba7f163c4a11628f55a4df523b3ef60405160405180910390a4612edb60008383612aeb565b5050565b828054612eeb90614364565b90600052602060002090601f016020900481019282612f0d5760008555612f54565b82601f10612f2657803560ff1916838001178555612f54565b82800160010185558215612f54579182015b82811115612f53578235825591602001919060010190612f38565b5b509050612f619190612feb565b5090565b828054612f7190614364565b90600052602060002090601f016020900481019282612f935760008555612fda565b82601f10612fac57805160ff1916838001178555612fda565b82800160010185558215612fda579182015b82811115612fd9578251825591602001919060010190612fbe565b5b509050612fe79190612feb565b5090565b5b80821115613004576000816000905550600101612fec565b5090565b600061301b61301684614078565b614053565b90508281526020810184848401111561303357600080fd5b61303e848285614322565b509392505050565b6000613059613054846140a9565b614053565b90508281526020810184848401111561307157600080fd5b61307c848285614322565b509392505050565b60008135905061309381614c59565b92915050565b6000813590506130a881614c70565b92915050565b6000813590506130bd81614c87565b92915050565b6000815190506130d281614c87565b92915050565b600082601f8301126130e957600080fd5b81356130f9848260208601613008565b91505092915050565b60008083601f84011261311457600080fd5b8235905067ffffffffffffffff81111561312d57600080fd5b60208301915083600182028301111561314557600080fd5b9250929050565b600082601f83011261315d57600080fd5b813561316d848260208601613046565b91505092915050565b60008135905061318581614c9e565b92915050565b60006020828403121561319d57600080fd5b60006131ab84828501613084565b91505092915050565b600080604083850312156131c757600080fd5b60006131d585828601613084565b92505060206131e685828601613084565b9150509250929050565b60008060006060848603121561320557600080fd5b600061321386828701613084565b935050602061322486828701613084565b925050604061323586828701613176565b9150509250925092565b6000806000806080858703121561325557600080fd5b600061326387828801613084565b945050602061327487828801613084565b935050604061328587828801613176565b925050606085013567ffffffffffffffff8111156132a257600080fd5b6132ae878288016130d8565b91505092959194509250565b600080604083850312156132cd57600080fd5b60006132db85828601613084565b92505060206132ec85828601613099565b9150509250929050565b6000806040838503121561330957600080fd5b600061331785828601613084565b925050602061332885828601613176565b9150509250929050565b60006020828403121561334457600080fd5b6000613352848285016130ae565b91505092915050565b60006020828403121561336d57600080fd5b600061337b848285016130c3565b91505092915050565b6000806020838503121561339757600080fd5b600083013567ffffffffffffffff8111156133b157600080fd5b6133bd85828601613102565b92509250509250929050565b600080600080604085870312156133df57600080fd5b600085013567ffffffffffffffff8111156133f957600080fd5b61340587828801613102565b9450945050602085013567ffffffffffffffff81111561342457600080fd5b61343087828801613102565b925092505092959194509250565b60006020828403121561345057600080fd5b600082013567ffffffffffffffff81111561346a57600080fd5b6134768482850161314c565b91505092915050565b60006020828403121561349157600080fd5b600061349f84828501613176565b91505092915050565b60006134b483836135bc565b905092915050565b6134c5816142ae565b82525050565b6134d48161429c565b82525050565b60006134e5826140ff565b6134ef818561412d565b935083602082028501613501856140da565b8060005b8581101561353d578484038952815161351e85826134a8565b945061352983614120565b925060208a01995050600181019050613505565b50829750879550505050505092915050565b613558816142c0565b82525050565b60006135698261410a565b613573818561413e565b9350613583818560208601614331565b61358c816144fd565b840191505092915050565b60006135a3838561417c565b93506135b0838584614322565b82840190509392505050565b60006135c782614115565b6135d1818561415a565b93506135e1818560208601614331565b6135ea816144fd565b840191505092915050565b600061360082614115565b61360a818561416b565b935061361a818560208601614331565b613623816144fd565b840191505092915050565b600061363982614115565b613643818561417c565b9350613653818560208601614331565b80840191505092915050565b6000815461366c81614364565b613676818661417c565b9450600182166000811461369157600181146136a2576136d5565b60ff198316865281860193506136d5565b6136ab856140ea565b60005b838110156136cd578154818901526001820191506020810190506136ae565b838801955050505b50505092915050565b60006136eb60438361416b565b91506136f68261450e565b606082019050919050565b600061370e60328361416b565b915061371982614583565b604082019050919050565b600061373160258361416b565b915061373c826145d2565b604082019050919050565b6000613754601c8361416b565b915061375f82614621565b602082019050919050565b6000613777605c8361417c565b91506137828261464a565b605c82019050919050565b600061379a60248361416b565b91506137a5826146bf565b604082019050919050565b60006137bd60198361416b565b91506137c88261470e565b602082019050919050565b60006137e0602c8361416b565b91506137eb82614737565b604082019050919050565b600061380360388361416b565b915061380e82614786565b604082019050919050565b600061382660018361417c565b9150613831826147d5565b600182019050919050565b6000613849602a8361416b565b9150613854826147fe565b604082019050919050565b600061386c60298361416b565b91506138778261484d565b604082019050919050565b600061388f602e8361416b565b915061389a8261489c565b604082019050919050565b60006138b2603c8361416b565b91506138bd826148eb565b604082019050919050565b60006138d560028361417c565b91506138e08261493a565b600282019050919050565b60006138f860208361416b565b915061390382614963565b602082019050919050565b600061391b60318361416b565b91506139268261498c565b604082019050919050565b600061393e602c8361416b565b9150613949826149db565b604082019050919050565b600061396160548361416b565b915061396c82614a2a565b606082019050919050565b6000613984602f8361416b565b915061398f82614a9f565b604082019050919050565b60006139a7600a8361417c565b91506139b282614aee565b600a82019050919050565b60006139ca60218361416b565b91506139d582614b17565b604082019050919050565b60006139ed601d8361417c565b91506139f882614b66565b601d82019050919050565b6000613a10600c8361417c565b9150613a1b82614b8f565b600c82019050919050565b6000613a3360008361414f565b9150613a3e82614bb8565b600082019050919050565b6000613a5660318361416b565b9150613a6182614bbb565b604082019050919050565b6000613a7960258361416b565b9150613a8482614c0a565b604082019050919050565b613a9881614318565b82525050565b6000613aab828486613597565b91508190509392505050565b6000613ac4828587613597565b9150613acf82613819565b9150613adb828461365f565b9150819050949350505050565b6000613af4828561362e565b9150613b00828461362e565b91508190509392505050565b6000613b18828661365f565b9150613b24828561362e565b9150613b30828461365f565b9150819050949350505050565b6000613b488261399a565b9150613b54828661362e565b9150613b5f8261376a565b9150613b6b828561362e565b9150613b7682613a03565b9150613b82828461362e565b9150613b8d826138c8565b9150819050949350505050565b6000613ba5826139e0565b9150613bb1828461362e565b915081905092915050565b6000613bc782613a26565b9150819050919050565b6000602082019050613be660008301846134cb565b92915050565b6000602082019050613c0160008301846134bc565b92915050565b6000608082019050613c1c60008301876134cb565b613c2960208301866134cb565b613c366040830185613a8f565b8181036060830152613c48818461355e565b905095945050505050565b60006020820190508181036000830152613c6d81846134da565b905092915050565b6000602082019050613c8a600083018461354f565b92915050565b60006020820190508181036000830152613caa81846135f5565b905092915050565b60006040820190508181036000830152613ccc81856135f5565b9050613cdb60208301846134cb565b9392505050565b60006040820190508181036000830152613cfc81856135f5565b90508181036020830152613d1081846135f5565b90509392505050565b60006080820190508181036000830152613d3381876135f5565b90508181036020830152613d4781866135f5565b90508181036040830152613d5b81856135f5565b9050613d6a6060830184613a8f565b95945050505050565b60006060820190508181036000830152613d8d81866135f5565b9050613d9c6020830185613a8f565b8181036040830152613dae81846135f5565b9050949350505050565b60006020820190508181036000830152613dd1816136de565b9050919050565b60006020820190508181036000830152613df181613701565b9050919050565b60006020820190508181036000830152613e1181613724565b9050919050565b60006020820190508181036000830152613e3181613747565b9050919050565b60006020820190508181036000830152613e518161378d565b9050919050565b60006020820190508181036000830152613e71816137b0565b9050919050565b60006020820190508181036000830152613e91816137d3565b9050919050565b60006020820190508181036000830152613eb1816137f6565b9050919050565b60006020820190508181036000830152613ed18161383c565b9050919050565b60006020820190508181036000830152613ef18161385f565b9050919050565b60006020820190508181036000830152613f1181613882565b9050919050565b60006020820190508181036000830152613f31816138a5565b9050919050565b60006020820190508181036000830152613f51816138eb565b9050919050565b60006020820190508181036000830152613f718161390e565b9050919050565b60006020820190508181036000830152613f9181613931565b9050919050565b60006020820190508181036000830152613fb181613954565b9050919050565b60006020820190508181036000830152613fd181613977565b9050919050565b60006020820190508181036000830152613ff1816139bd565b9050919050565b6000602082019050818103600083015261401181613a49565b9050919050565b6000602082019050818103600083015261403181613a6c565b9050919050565b600060208201905061404d6000830184613a8f565b92915050565b600061405d61406e565b90506140698282614396565b919050565b6000604051905090565b600067ffffffffffffffff821115614093576140926144ce565b5b61409c826144fd565b9050602081019050919050565b600067ffffffffffffffff8211156140c4576140c36144ce565b5b6140cd826144fd565b9050602081019050919050565b6000819050602082019050919050565b60008190508160005260206000209050919050565b600081519050919050565b600081519050919050565b600081519050919050565b6000602082019050919050565b600082825260208201905092915050565b600082825260208201905092915050565b600081905092915050565b600082825260208201905092915050565b600082825260208201905092915050565b600081905092915050565b600061419282614318565b915061419d83614318565b9250827fffffffffffffffffffffffffffffffffffffffffffffffffffffffffffffffff038211156141d2576141d1614441565b5b828201905092915050565b60006141e882614318565b91506141f383614318565b92508261420357614202614470565b5b828204905092915050565b600061421982614318565b915061422483614318565b9250817fffffffffffffffffffffffffffffffffffffffffffffffffffffffffffffffff048311821515161561425d5761425c614441565b5b828202905092915050565b600061427382614318565b915061427e83614318565b92508282101561429157614290614441565b5b828203905092915050565b60006142a7826142f8565b9050919050565b60006142b9826142f8565b9050919050565b60008115159050919050565b60007fffffffff0000000000000000000000000000000000000000000000000000000082169050919050565b600073ffffffffffffffffffffffffffffffffffffffff82169050919050565b6000819050919050565b82818337600083830152505050565b60005b8381101561434f578082015181840152602081019050614334565b8381111561435e576000848401525b50505050565b6000600282049050600182168061437c57607f821691505b602082108114156143905761438f61449f565b5b50919050565b61439f826144fd565b810181811067ffffffffffffffff821117156143be576143bd6144ce565b5b80604052505050565b60006143d282614318565b91507fffffffffffffffffffffffffffffffffffffffffffffffffffffffffffffffff82141561440557614404614441565b5b600182019050919050565b600061441b82614318565b915061442683614318565b92508261443657614435614470565b5b828206905092915050565b7f4e487b7100000000000000000000000000000000000000000000000000000000600052601160045260246000fd5b7f4e487b7100000000000000000000000000000000000000000000000000000000600052601260045260246000fd5b7f4e487b7100000000000000000000000000000000000000000000000000000000600052602260045260246000fd5b7f4e487b7100000000000000000000000000000000000000000000000000000000600052604160045260246000fd5b6000601f19601f8301169050919050565b7f50616964204d61746963206973206e6f7420656e6f7567682e20506c6561736560008201527f20706179207468652072656d61696e696e67204d6174696320746f2070726f6360208201527f6565640000000000000000000000000000000000000000000000000000000000604082015250565b7f4552433732313a207472616e7366657220746f206e6f6e20455243373231526560008201527f63656976657220696d706c656d656e7465720000000000000000000000000000602082015250565b7f4552433732313a207472616e736665722066726f6d20696e636f72726563742060008201527f6f776e6572000000000000000000000000000000000000000000000000000000602082015250565b7f4552433732313a20746f6b656e20616c7265616479206d696e74656400000000600082015250565b7f222c20226465736372697074696f6e223a20224120646f6d61696e206f6e207460008201527f6865204e696e6a61206e616d652073657276696365222c2022696d616765223a60208201527f2022646174613a696d6167652f7376672b786d6c3b6261736536342c00000000604082015250565b7f4552433732313a207472616e7366657220746f20746865207a65726f2061646460008201527f7265737300000000000000000000000000000000000000000000000000000000602082015250565b7f4552433732313a20617070726f766520746f2063616c6c657200000000000000600082015250565b7f4552433732313a206f70657261746f7220717565727920666f72206e6f6e657860008201527f697374656e7420746f6b656e0000000000000000000000000000000000000000602082015250565b7f4552433732313a20617070726f76652063616c6c6572206973206e6f74206f7760008201527f6e6572206e6f7220617070726f76656420666f7220616c6c0000000000000000602082015250565b7f2e00000000000000000000000000000000000000000000000000000000000000600082015250565b7f4552433732313a2062616c616e636520717565727920666f7220746865207a6560008201527f726f206164647265737300000000000000000000000000000000000000000000602082015250565b7f4552433732313a206f776e657220717565727920666f72206e6f6e657869737460008201527f656e7420746f6b656e0000000000000000000000000000000000000000000000602082015250565b7f45524337323155524953746f726167653a2055524920736574206f66206e6f6e60008201527f6578697374656e7420746f6b656e000000000000000000000000000000000000602082015250565b7f54686520646f6d61696e20697320616c7265616479207265676973746572656460008201527f2c20706c656173652063686f6f736520616e6f74686572206f6e652100000000602082015250565b7f227d000000000000000000000000000000000000000000000000000000000000600082015250565b7f4552433732313a206d696e7420746f20746865207a65726f2061646472657373600082015250565b7f45524337323155524953746f726167653a2055524920717565727920666f722060008201527f6e6f6e6578697374656e7420746f6b656e000000000000000000000000000000602082015250565b7f4552433732313a20617070726f76656420717565727920666f72206e6f6e657860008201527f697374656e7420746f6b656e0000000000000000000000000000000000000000602082015250565b7f506c6561736520696e63726561736520746865206e756d626572206f6620636860008201527f61726163746572732e4d696e696d756d206c656e677468206f66206120646f6d60208201527f61696e206973203320636861726163746572732e000000000000000000000000604082015250565b7f4552433732314d657461646174613a2055524920717565727920666f72206e6f60008201527f6e6578697374656e7420746f6b656e0000000000000000000000000000000000602082015250565b7f7b226e616d65223a202200000000000000000000000000000000000000000000600082015250565b7f4552433732313a20617070726f76616c20746f2063757272656e74206f776e6560008201527f7200000000000000000000000000000000000000000000000000000000000000602082015250565b7f646174613a6170706c69636174696f6e2f6a736f6e3b6261736536342c000000600082015250565b7f222c226c656e677468223a220000000000000000000000000000000000000000600082015250565b50565b7f4552433732313a207472616e736665722063616c6c6572206973206e6f74206f60008201527f776e6572206e6f7220617070726f766564000000000000000000000000000000602082015250565b7f5472616e73616374696f6e206661696c65642e20506c6561736520747279206160008201527f6761696e21000000000000000000000000000000000000000000000000000000602082015250565b614c628161429c565b8114614c6d57600080fd5b50565b614c79816142c0565b8114614c8457600080fd5b50565b614c90816142cc565b8114614c9b57600080fd5b50565b614ca781614318565b8114614cb257600080fd5b5056fe4142434445464748494a4b4c4d4e4f505152535455565758595a6162636465666768696a6b6c6d6e6f707172737475767778797a303132333435363738392b2f52656769737472696e672025732e257320776974682074686520746f6b656e4964202569a2646970667358221220bdbaceb8e4b39932a55b50e338c4713f2dcdd61d4cd95ad974bc398b4a3f4a0164736f6c634300080400333c73766720786d6c6e733d22687474703a2f2f7777772e77332e6f72672f323030302f737667222077696474683d2232373022206865696768743d22323730222066696c6c3d226e6f6e65223e3c706174682066696c6c3d2275726c282361292220643d224d302030683237307632373048307a222f3e3c646566733e3c66696c7465722069643d22622220636f6c6f722d696e746572706f6c6174696f6e2d66696c746572733d2273524742222066696c746572556e6974733d227573657253706163654f6e55736522206865696768743d22323730222077696474683d22323730223e3c666544726f70536861646f772064783d2230222064793d22312220737464446576696174696f6e3d22322220666c6f6f642d6f7061636974793d222e323235222077696474683d223230302522206865696768743d2232303025222f3e3c2f66696c7465723e3c2f646566733e3c7061746820643d224d37322e3836332034322e39343961342e33383220342e3338322030203020302d342e33393420306c2d31302e30383120362e3033322d362e383520332e3933342d31302e30383120362e30333261342e33383220342e3338322030203020312d342e33393420306c2d382e3031332d342e37323161342e353220342e35322030203020312d312e3538392d312e36313620342e353420342e35342030203020312d2e3630382d322e313837762d392e333161342e323720342e3237203020302031202e3537322d322e32303820342e323520342e323520302030203120312e3632352d312e3539356c372e3838342d342e353961342e33383220342e33383220302030203120342e33393420306c372e38383420342e353961342e353220342e353220302030203120312e35383920312e36313620342e353420342e3534203020302031202e36303820322e31383776362e3033326c362e38352d342e303635762d362e30333261342e323720342e32372030203020302d2e3537322d322e32303820342e323520342e32352030203020302d312e3632352d312e3539354c34312e3435362032342e353961342e33383220342e3338322030203020302d342e33393420306c2d31342e38363420382e36353561342e323520342e32352030203020302d312e36323520312e35393520342e32373320342e3237332030203020302d2e35373220322e3230387631372e34343161342e323720342e3237203020302030202e35373220322e32303820342e323520342e323520302030203020312e36323520312e3539356c31342e38363420382e36353561342e33383220342e33383220302030203020342e33393420306c31302e3038312d352e39303120362e38352d342e3036352031302e3038312d352e39303161342e33383220342e33383220302030203120342e33393420306c372e38383420342e353961342e353220342e353220302030203120312e35383920312e36313620342e353420342e3534203020302031202e36303820322e31383776392e33313161342e323720342e32372030203020312d2e35373220322e32303820342e323520342e32352030203020312d312e36323520312e3539356c2d372e38383420342e37323161342e33383220342e3338322030203020312d342e33393420306c2d372e3838342d342e353961342e353220342e35322030203020312d312e3538392d312e36313620342e353320342e35332030203020312d2e3630382d322e313837762d362e3033326c2d362e383520342e30363576362e30333261342e323720342e3237203020302030202e35373220322e32303820342e323520342e323520302030203020312e36323520312e3539356c31342e38363420382e36353561342e33383220342e33383220302030203020342e33393420306c31342e3836342d382e36353561342e35343520342e35343520302030203020322e3139382d332e3830335635352e35333861342e323720342e32372030203020302d2e3537322d322e32303820342e323520342e32352030203020302d312e3632352d312e3539356c2d31342e3939332d382e3738367a222066696c6c3d2223666666222f3e3c646566733e3c6c696e6561724772616469656e742069643d2261222078313d2230222079313d2230222078323d22323730222079323d2232373022206772616469656e74556e6974733d227573657253706163654f6e557365223e3c73746f702073746f702d636f6c6f723d2223303164303132222f3e3c73746f70206f66667365743d2231222073746f702d636f6c6f723d2223666664343136222073746f702d6f7061636974793d222e3939222f3e3c2f6c696e6561724772616469656e743e3c2f646566733e3c7465787420783d2233322e352220793d223233312220666f6e742d73697a653d223237222066696c6c3d2223666666222066696c7465723d2275726c282362292220666f6e742d66616d696c793d22506c7573204a616b617274612053616e732c44656a6156752053616e732c4e6f746f20436f6c6f7220456d6f6a692c4170706c6520436f6c6f7220456d6f6a692c73616e732d73657269662220666f6e742d7765696768743d22626f6c64223e",
  "linkReferences": {},
  "deployedLinkReferences": {}
}